:100000000C94FA010C9422020C9422020C94220209
:100010000C9422020C9422020C94F2130C942202EF
:100020000C9422020C9422020C9422020C942202C0
:100030000C9422020C94292A0C9422020C94220281
:100040000C94F8200C9422020C9492120C946C12D2
:100050000C9422020C9422020C9422020C94220290
:100060000C94C4120C9422022C002C002C002C00A6
:10007000202D206E6F7420747279696E672061671D
:1000800061696E00202D20616761696E206E6F745A
:1000900020666F756E6400736F6D652070726F629D
:1000A0006C656D206F6363757265643A20534420FC
:1000B00063617264206E6F74207468657265006C91
:1000C00061737420627974653A200076616C75659D
:1000D0003A20007472616E736D697373696F6E623A
:1000E0007974650076616C75653A200044656275C7
:1000F0006773746174656D656E7420696E7369648D
:100100006520696620706F7369746976650073682D
:100110006966746F75742076616C75653A20007439
:10012000696D653A20005761746572696E67206772
:10013000726F75703A200075696E742074696D6510
:100140003A00656E74657220736C65657020706826
:1001500061736500486F75723A0047726F7570730E
:10016000206C6566743A2000736C65657074696D07
:100170006525383A20007374617274207761746564
:1001800072696E67007761746572696E6720677265
:100190006F75702066696E69736865640077617455
:1001A0006572696E6720626173653A2000776174D9
:1001B0006572696E67207768696C6520696E73691E
:1001C0006465007761746572696E67207768696C31
:1001D00065007374617274207761746572696E670B
:1001E0002070686173650073687574646F776E2042
:1001F0004553502D3031002000636F6E66696720D3
:100200007472696767657265642C20626F6F6C2019
:1002100076616C7565733A20005472616E736D6916
:100220007373696F6E204F4B21005472616E736D52
:10023000697373696F6E204572726F722120566107
:100240006C75653A2000646174613A00656E74658E
:100250007220646174616C6F6720706861736500FF
:100260005369676E616C65642065737020746F20DC
:1002700075706461746520646174610044617461C7
:100280006C6F6770686173653A2000736875746499
:100290006F776E204553502D303100656E74657256
:1002A00020696E6974202620636865636B2070681E
:1002B00061736500202E20004572726F723A2072C1
:1002C000746320646576696365206E6F742061765F
:1002D00061696C61626C6521005374617274206C99
:1002E0006F6F702064656275672031007C3C3E5EF4
:1002F0002B3D3F2F5B5D3B2C2A225C000000000061
:10030000240027002A000102040810204080010276
:10031000040810200102040810200404040404044A
:1003200004040202020202020303030303036465DE
:10033000627567203000646562756720737461744C
:10034000656D656E7400626D6520646576696365D0
:10035000206572726F722100646562756720737424
:100360006174656D656E7400646562756720737491
:100370006174656D656E7400576972657365747537
:100380007020646562756720300048656C6C6F2C66
:1003900020576F726C6421000000000025002800C7
:1003A0002B00000000080002010000030407000009
:1003B0000000000000004572726F723A20646174A0
:1003C00061207472616E736D697373696F6E2077EB
:1003D000656E742077726F6E67207369676E696EE1
:1003E00067206279746520696E636F7272656374E9
:1003F00000004B2C11241FBECFEFD8E0DEBFCDBFD5
:1004000026E0A0E6B2E001C01D92AD37B207E1F7E9
:1004100012E0A0E0B1E0EEE2FAE602C005900D9233
:10042000A036B107D9F711E0CAEFD1E004C0219797
:10043000FE010E94C431C93FD107C9F70E949F2C19
:100440000C9415350C9400002F923F924F925F92BE
:100450006F927F928F929F92AF92BF92CF92DF92D4
:10046000EF92FF920F931F93CF93DF93CDB7DEB739
:10047000CB5ED1090FB6F894DEBF0FBECDBF2DB74E
:100480003EB7C651DF4F39832883CA5ED04061E052
:1004900080E10E94F71F0E94561A89ED92E00E94A7
:1004A000EB1A88E60E94091E0E94131C811124C0C9
:1004B0008BE992E00E94EB1AAE0148535F4F6A014C
:1004C000CE0189539F4F7C018E010A531F4F9E011D
:1004D0002B533F4F44505109BE016D537F4F059739
:1004E0000E948D2BCC53DF4F8881C45CD04090910B
:1004F0001D0698131EC043C088EB92E00E94EB1AC1
:1005000084EB92E00E94BF1A88E60E94091E0E94B6
:10051000131C182F0E94252C20E030E040E050E012
:1005200069E070E08CE892E00E9409141111E8CFB4
:10053000BFCF409188025091890260918A027091E8
:100540008B0240585141694C7F4F40938802509331
:10055000890260938A0270938B028B3011F0833191
:1005600071F481E080938702809386028CE0ECE155
:10057000F1E0AAE7B2E001900D928A95E1F7CE533F
:10058000DF4F2881C25CD04030E0A8EEB3E00E948B
:1005900026306B017C01CD53DF4F2881C35CD040F6
:1005A00030E0A0E6BAEE0E942630DC01CB018C0DD3
:1005B0009D1DAE1DBF1D00918802109189022091E2
:1005C0008A0230918B022C013D01400E511E621EA9
:1005D000731E8091750290917602A0917702B0917E
:1005E0007802805A9541AF4FBF4F84159505A605F7
:1005F000B70570F480917902882351F01092790246
:1006000060E082E00E94F71F8BE892E00E94EB1A04
:100610008CE792E00E94BF1A809171029091720261
:10062000A0917302B0917402B301A201481B590B4F
:100630006A0B7B0B81E090E0413C574269407105B9
:1006400010F480E090E00E94071FC301B2010E94F5
:10065000DA1A609171027091720280917302909126
:1006600074020E94DA1A60EA76E881E090E00E9463
:10067000DA1AC301B2010E94C52E6B017C016091A0
:1006800071027091720280917302909174020E94C3
:10069000C52E9B01AC01C701B6010E94CA316B0196
:1006A0007C014B015C019B01AC010E94E432882378
:1006B00019F06BEC71E02DC0A70196015F77C5536F
:1006C000DF4F288339834A835B83CB5CD0402FEF95
:1006D0003FEF4FE75FE7C553DF4F688179818A813C
:1006E0009B81CB5CD0400E94E432811117C02FEF78
:1006F0003FEF4FE75FE7C553DF4F688179818A811C
:100700009B81CB5CD0400E94C02E18163CF46FEC4D
:1007100071E082E295E00E943A1278C02FEF3FEF3D
:100720004FE75FE4C701B6010E94DF3218161CF4E0
:1007300063ED71E0EECF2FEF3FEF4FE75FECC701C6
:10074000B6010E94C02E87FDF3CF20E030E0A90162
:10075000C701B6010E94C02E87FF0BC06DE282E286
:1007600095E00E94491046015701B7FAB094B7F8D6
:10077000B0942AE037ED43EA5BE3C501B4010E947F
:10078000CB314B015C010E94B0326B017C010E94B5
:10079000C52E9B01AC01C501B4010E94CA314B01B9
:1007A0005C014AE0C701B6010E94671A6EE282E26C
:1007B00095E00E94491020E030E040E251E4C5019C
:1007C000B4010E94262F4B015C010E94B0326B01E4
:1007D000E12CF12C4AE0C701B6010E94671AC7015B
:1007E000B6010E94C52E9B01AC01C501B4010E9457
:1007F000CA3120E030E040E251E40E94262F0E94FE
:10080000B03280E090E04AE00E94671A67ED71E044
:1008100082E295E00E943A1260918802709189020A
:1008200080918A0290918B020E94DA1A8091710263
:1008300090917202A0917302B0917402A30192018F
:10084000281B390B4A0B5B0BDA01C901813C97422B
:10085000A940B10508F4E3C74092710250927202B8
:10086000609273027092740286EE8093B80081E009
:1008700080937902409275025092760260927702DC
:10088000709278021092700261E082E00E94F71F7D
:1008900064EF71E080E090E00E94B22082E00E946C
:1008A000802B80E692E00E94BF1A64E670E080E050
:1008B00090E00E94B2208CE492E00E94EB1AC354B4
:1008C000DF4F19821882CD5BD040FE01319688E35C
:1008D000DF011D928A95E9F76AED71E0CE01C996B4
:1008E0000E94C921AE0143545F4FBE01675C7F4F38
:1008F0008BE00E946F1CCE01C9960E94C4210E9409
:10090000602B9C878B87C354DF4F88819981CD5B97
:10091000D0409A87898761E070E080E090E00E9493
:10092000B22061E083E00E94F71F61E080E10E9455
:10093000F71F0E94561A64E670E080E090E00E9483
:10094000B2200E94771F87EF0E94211FCC51DF4FFA
:10095000688379838A839B83C45ED04080914806F4
:1009600090914906A0914A06B0914B066C017D0119
:10097000FF0CCC08DC2C76019C01AD016C2D7C2D8C
:100980008C2D9C2D345F4140510961097109810909
:100990009109C553DF4F2883CB5CD040C153DF4F53
:1009A0003883CF5CD040CF52DF4F4883C15DD04009
:1009B000CE52DF4F5883C25DD040CD52DF4F6883A7
:1009C000C35DD040CC52DF4F7883C45DD040CB5262
:1009D000DF4F8883C55DD040CA52DF4F9883C65D24
:1009E000D04059016A017B018C010E947630C952C6
:1009F000DF4F2883C75DD040C852DF4F3883C85DC2
:100A0000D040C752DF4F4883C95DD040C152DF4F4D
:100A10005883CF5DD040C052DF4F6883C05ED04066
:100A2000CF51DF4F7883C15ED040CE51DF4F8883F6
:100A3000C25ED040CD51DF4F9883C35ED04030912D
:100A4000300620912F06932F990F990B492F592F7C
:100A5000692F792F892F0E9476300CE00E946F3128
:100A600019012A013B014C013091320620913106D7
:100A7000932F990F990BC952DF4FA880C75DD040C3
:100A8000C852DF4FB880C85DD040C752DF4FC88022
:100A9000C95DD040C152DF4FD880CF5DD040C05239
:100AA000DF4FE880C05ED040CF51DF4FF880C15E9D
:100AB000D040CE51DF4F0881C25ED040CD51DF4FD4
:100AC0001881C35ED040492F592F692F792F892F64
:100AD0000E94763008E00E94883151016201730162
:100AE00084010E94A63170588F4F9F4F20902D0691
:100AF00030902E065101C12CD12CE12CF12C00E0BC
:100B000010E00E94763001E20E948831C652DF4F29
:100B10002883CA5DD040C552DF4F3883CB5DD040BB
:100B2000C452DF4F4883CC5DD040C352DF4F58835F
:100B3000CD5DD040C252DF4F6883CE5DD040272EBE
:100B4000382E492EA0E00E94B83109F4C6C1309178
:100B5000380620913706932F990F990BC952DF4F12
:100B6000A880C75DD040C852DF4FB880C85DD04074
:100B7000C752DF4FC880C95DD040C152DF4FD88017
:100B8000CF5DD040C052DF4FE880C05ED040CF5133
:100B9000DF4FF880C15ED040CE51DF4F0881C25E8A
:100BA000D040CD51DF4F1881C35ED040492F592F1F
:100BB000692F792F892F0E947630C952DF4F288301
:100BC000C75DD040C852DF4F3883C85DD040C752A0
:100BD000DF4F4883C95DD040552E3B014C01309119
:100BE000360620913506932F990F990BC553DF4F89
:100BF000A880CB5CD040C153DF4FB880CF5CD040E1
:100C0000CF52DF4FC880C15DD040CE52DF4FD88079
:100C1000C25DD040CD52DF4FE880C35DD040CC52A2
:100C2000DF4FF880C45DD040CB52DF4F0881C55DF7
:100C3000D040CA52DF4F1881C65DD040492F592F8E
:100C4000692F792F892F0E94763001E10E946F3140
:100C5000C952DF4FA880C75DD040C852DF4FB8806F
:100C6000C85DD040C752DF4FC880C95DD040D52C89
:100C7000730184010E94A63159016A017B01582E3B
:100C8000192FCC51DF4F488159816A817B81C45E25
:100C9000D040E4E07595679557954795EA95D1F76B
:100CA00080E090E0A0E1B0E0841B950BA60BB70BB1
:100CB0003C014D01990C6608762C43019C01AD0165
:100CC000662D762D862D962D0FE10E946F3139010C
:100CD0004A01B62FA72FF82FE92F30913406209123
:100CE0003306932F990F990B492F592F692F792F7D
:100CF000892F03E20E946F31052D0E94A631590110
:100D00006A017B018C019301A4016B2F7A2F8F2F35
:100D10009E2F0E94AF31A5E3AA2EBCE0BB2EC12CB2
:100D2000D12CE12CF12C00E010E00E947630C6526C
:100D3000DF4FA880CA5DD040C552DF4FB880CB5D81
:100D4000D040C452DF4FC880CC5DD040C352DF4F8B
:100D5000D880CD5DD040C252DF4FE880CE5DD0401C
:100D6000F22C032D142D0E94D130C553DF4F288360
:100D7000CB5CD040C153DF4F3883CF5CD040CF52E3
:100D8000DF4F4883C15DD040CE52DF4F5883C25DF4
:100D9000D040CD52DF4F6883C35DD040CC52DF4F8F
:100DA0007883C45DD040CB52DF4F8883C55DD0408F
:100DB000CA52DF4F9883C65DD0400DE00E94883153
:100DC000922E832E742E652E562E472E382E292EC7
:100DD00030913E0620913D06932F990F990BA92C37
:100DE000B82CC72CD62CE52CF42C032D122D492F12
:100DF000592F692F792F892F0E9476300E947630E3
:100E000009E10E948831C553DF4FA880CB5CD040F8
:100E1000C153DF4FB880CF5CD040CF52DF4FC88086
:100E2000C15DD040CE52DF4FD880C25DD040CD52A0
:100E3000DF4FE880C35DD040CC52DF4FF880C45D07
:100E4000D040CB52DF4F0881C55DD040CA52DF4F42
:100E50001881C65DD0400E94A63119012A013B01CC
:100E60004C0130913C0620913B06932F990F990B32
:100E7000492F592F692F792F892F0E94763003E14E
:100E80000E94883159016A017B018C019101A20104
:100E9000B301C4010E94A63108E00E9488315901C3
:100EA0006A017B01E82F192F30913A06209139060B
:100EB000932F990F990B492F592F692F792F892F2C
:100EC00004E00E946F310E2F0E94A63149015A01A1
:100ED00099278B2D7A2D692D03C060E070E0CB013E
:100EE0000E94C52E20E030E040E251E40E943732FB
:100EF00020E030E0A9010E94CB310E94A9327A8320
:100F000069830E94771F8DEF0E94AF1E8090480674
:100F100090904906A0904A06B0904B06BCE29B1AFE
:100F2000B1E0AB0AB1086C01E12CF12C5EE0CC0C15
:100F3000DD1CEE1CFF1C5A95D1F7409143065091E1
:100F40004406052E000C660B770BE4E1440F551F99
:100F5000661F771FEA95D1F7C41AD50AE60AF70A81
:100F6000A0914506B0914606A50194010E946E30FD
:100F7000C61AD70AE80AF90AE0E4DE0EE11CF11C01
:100F8000FFE0F594E794D794C794FA95D1F7A09130
:100F90004206B0E00E94E42F2B013C01ABE07594C7
:100FA000679457944794AA95D1F7F0E85F0E611CB7
:100FB000711CA09147060A2E000CBB0B0E946E30DC
:100FC000BAE09595879577956795BA95D1F7A3017E
:100FD00092010E943530DC01CB011AE0B595A7954E
:100FE000979587951A95D1F79C01AD01405E5F4FAB
:100FF000A0914006B09141060E946E30DC01CB0109
:10100000905EAF4FBF4FBC01CD010EE09595879527
:10101000779567950A95D1F7A70196010E9435301B
:101020006B017C012FE095958795779567952A95BB
:10103000D1F79B01AC010E9435309B01AC0167E008
:1010400055954795379527956A95D1F7A0913F0615
:10105000B0E00E94E42FDC01CB0174E0B595A795C8
:10106000979587957A95D1F7A7019601281B390B9B
:101070004A0B5B0BDA01C90157FF03C080E090E027
:10108000DC0181309105A10539E1B30724F080E04E
:1010900090E0A0E0B9E1BC01CD014CE095958795C9
:1010A000779567954A95D1F70E94C52E20E030E0EC
:1010B00040E85AE30E94262F0E94B0320E94C52EBB
:1010C00020E030E048EC52E40E94262F20E030E09F
:1010D000A9010E94CB310E94A9327C836B830E94BC
:1010E000771F20E030E048EC52E40E94262F20E0F9
:1010F00030E0A9010E94CB310E94A9327E836D832A
:101100000E94602B98878F837E014DE0E40EF11CD6
:1011100010E05E0159E3A50EB11C6AED71E0C50156
:101120000E94C921AE0143545F4FB501812F0E9437
:101130006F1CC5010E94C42161E070E080E090E076
:101140000E94B220C354DF4F88819981CD5BD0408B
:10115000D7018D939D937D011F5F1C30F1F660E0F8
:1011600083E00E94F71F61E080E10E94F71F0E9468
:10117000561A69ED71E0CE0185559F4F0E94C92135
:101180004E01B6E58B0E911C69ED71E0C4010E9421
:10119000C921FE01ED58FF4F6F019E0120573F4FBF
:1011A00079018E010F541F4F295D3F4FAE0141540D
:1011B0005F4FBE0160547F4FCE018F539F4F0E94FF
:1011C0008D2BC154DF4F6881CF5BD040C5010E9499
:1011D0008B21B501C4010E94A81EC5010E94C42133
:1011E0001AAE19AE1CAE1BAE1EAE1DAE6EE670E0A2
:1011F000C5010E944221B501C4010E94A81EC5017B
:101200000E94C421C054DF4F6881C05CD040C5013A
:101210000E948B21B501C4010E94A81EC5010E9435
:10122000C4211AAE19AE1CAE1BAE1EAE1DAE6CE6CE
:1012300070E0C5010E944221B501C4010E94A81EB0
:10124000C5010E94C421CF53DF4F6881C15CD040EB
:10125000C5010E948B21B501C4010E94A81EC501D1
:101260000E94C4211AAE19AE1CAE1BAE1EAE1DAE3E
:101270006AE670E0C5010E944221B501C4010E94E6
:10128000A81EC5010E94C421CF54DF4F6881C15BF5
:10129000D040C5010E948B21B501C4010E94A81E47
:1012A000C5010E94C4211AAE19AE1CAE1BAE1EAE03
:1012B0001DAE68E670E0C5010E944221B501C4017F
:1012C0000E94A81EC5010E94C421C057DF4F68813B
:1012D000C059D040C5010E948B21B501C4010E94B4
:1012E000A81EC5010E94C421B401CE0185559F4F9F
:1012F0000E94A81EC4010E94C42141E050E06FED8D
:1013000071E0CE0185559F4F0E947A1EAE014F5F5E
:101310005F4F7A013A01085711094AE0B801D70135
:101320008D919D917D010E948B2EF80101900020EE
:10133000E9F73197AF01401B510BB801CE0185553C
:101340009F4F0E947A1E41E050E06FED71E0CE01A8
:1013500085559F4F0E947A1EEA14FB04F1F664EF54
:1013600071E080E090E00E94B22061EE71E0CE0179
:1013700089549F4F0E94C921CF54DF4F1982188290
:10138000C15BD040CD54DF4F19821882C35BD0407F
:10139000CB54DF4F19821882C55BD040C555DF4F53
:1013A00068817981CB5AD0406115710559F0C155DA
:1013B000DF4F48815981CF5AD040CE018F549F4F83
:1013C0000E946A210E941A1961E08AE00E94762038
:1013D0000E94FB1A811122C087E990E00E94EB1A5B
:1013E000F12C68E873E180E090E00E94B2200E9456
:1013F000FB1A811106C084E890E00E94BF1A80E0C9
:1014000001C081E0F394B5E0BF1518F0882349F3DB
:1014100005C080E790E00E94EB1AE3CFC954DF4F8C
:10142000C880D980C75BD040F4011382128287EB59
:1014300091E09183808315821CAE1BAE9AAF89AF79
:101440001EAEC4010E94E019760124016FE270E033
:10145000C7010E94EB34009709F44BC0D7012C91CF
:101460002F3271F4BFEFEB1AFB0A902F812F82010C
:10147000492E582E942D852D2801092F182FE6CF9F
:101480008E198D3008F08CE0A82EB12CA501B70183
:10149000CE0180579F4F0E940635E0E9F0E0EC0F47
:1014A000FD1FEA0DFB1D1082C8010E94EE23F8010A
:1014B0008581882371F0E7961FAE1EAEE79787EB14
:1014C00091E0E5969FAF8EAFE597E9961FAEE9975D
:1014D0001FC021E0AE0140575F4FB201C8010E941A
:1014E000EC15882341F3EA0CFB1CC2010E94EE2399
:1014F000C1CF97012C193D09C851DF4F398328838B
:10150000C85ED040B201CE018D589F4F0E94BB28CB
:10151000C851DF4F48815981C85ED040C40ED51EE6
:10152000D6018C9181110AC0BE016D587F4FCE014A
:10153000C9960E94BB284EEE51E052C0F4011382BE
:10154000128287EB91E0918380831582E9968FADBB
:10155000E997811126C0CE56DF4F19821882C259F1
:10156000D04088EE93E0A0E0B0E0CC56DF4F888317
:101570009983AA83BB83C459D0408FE691E0C057BA
:10158000DF4F99838883C059D040C755DF4F1982F8
:101590001882C95AD040C456DF4F1882CC59D04067
:1015A00027C027E1A601BE016D587F4FC4010E94EC
:1015B000EC15882381F2CE018D589F4F0E94EE23B7
:1015C000D40153964D915D916D917C915697C401D4
:1015D0000E945922B401CE01C9960E94BB28A601DF
:1015E000BE01675C7F4FCE0180579F4F0E9442191A
:1015F000C755DF4FE881F981C95AD040309751F182
:101600008581882339F1BE016F547F4FCE01805709
:101610009F4F0E944F12C755DF4F88819981C95A49
:10162000D040009781F00E94EE23C755DF4F88819C
:101630009981C95AD0400E948133C755DF4F198222
:101640001882C95AD040BE016F547F4F82E295E0A4
:101650000E944F1268EE73E080E090E00E94B2209A
:10166000CE018F549F4F0E94C421CE0189549F4FB9
:101670000E94C42186E492E00E94BF1ABE01655513
:101680007F4F82E295E00E944F1240E050E069ED0A
:1016900071E0CE0185559F4F0E946A2168E873E191
:1016A00080E090E00E94B22086EE8093B80064EF64
:1016B00071E080E090E00E94B22068EB7BE080E087
:1016C00090E00E94B220ADB6BEB68CEE90E00E94D3
:1016D000EB1AEDB7FEB77D970FB6F894FEBF0FBEBD
:1016E000EDBF0DB71EB70F5F1F4F32968DB79EB778
:1016F0004E961192E817F907E1F78DE1F301D80151
:1017000001900D928A95E1F7D8015C961C927801C0
:101710004801BCE18B0E911C680184EE90E00E94B0
:10172000BF1AF601818190E0982F88272081822BB3
:101730000E94071FF2E0CF0ED11C8C149D0469F7A4
:1017400083ED90E00E94BF1AD8015D968C910E94B3
:10175000AA1A88E00E94091E4DE150E0B8018FEB03
:1017600095E00E944B110E94131CD82E68EB7BE081
:1017700080E090E00E94B2208DE1FE017D96D801CC
:1017800001900D928A95E1F781E0F801848F8BEC4E
:1017900090E00E94BF1AD70111968C91119790E0AA
:1017A000982F88272C91822B0E94071FB2E0EB0E06
:1017B000F11C8E149F0459F78FEB90E00E94BF1A22
:1017C000F801858D0E94AA1A88E00E94091E4DE149
:1017D00050E0B8018FEB95E00E944B110E94131C62
:1017E0001D2D180F0FB6F894BEBE0FBEADBE41F052
:1017F0008AE292E00E94BF1A812F0E94AA1A04C0B6
:1018000089E192E00E94EB1A6AE070E080E090E0EB
:101810000E94B220CE0185559F4F0E94C421809125
:101820007902882309F476C083E00E94802B10E0BF
:1018300004E08091700281110CC0193710F0009300
:1018400070021F5F68EE73E080E090E00E94B220BB
:10185000F0CF813009F050C080918702882309F4CD
:101860004BC01092870211E080916C0290916D0242
:10187000892B09F410E01093010181E020916E02A0
:1018800030916F02232B09F480E08093000189EFEF
:1018900091E00E94BF1A612F70E080E090E04AE082
:1018A0000E94671A87EF91E00E94BF1A80910001A1
:1018B00090E00E94071F80910001811107C0809174
:1018C0000101811119C01092860216C08CE0E0E679
:1018D000F2E0AAE7B2E001900D928A95E1F7E0E626
:1018E000F2E0AAE7B2E0819191918D939D9322E07D
:1018F000EC36F207C1F7E3CF80917002813051F4EA
:101900001092790260E082E00E94F71F87EE91E07A
:101910000E94EB1A60EF71E082E295E00E943A12B9
:1019200067ED71E082E295E00E943A1200E612E073
:1019300090E7E92E92E0F92ED8018D919D918D01CD
:101940000E94071FE016F106B9F7809186028823EE
:1019500009F4A6C282ED91E00E94EB1A86E0E0E174
:10196000F1E0DE01119601900D928A95E1F783EC8A
:1019700091E00E94EB1A0E94EC202B013C01B0EC9C
:101980004B0EB7E25B1EB9E06B1E711CFE01379671
:10199000C753DF4FF983E883C95CD0400E94EC2035
:1019A000641575058605970508F07AC28091860250
:1019B000882309F475C28DEA91E00E94EB1A26E1B2
:1019C00031E0C553DF4F39832883CB5CD0400AE731
:1019D00012E0AE014F5F5F4F1A014A01C553DF4F5E
:1019E000A881B981CB5CD040BD90C553DF4FB9838E
:1019F000A883CB5CD0408B2D0E94AA1A8DE991E080
:101A00000E94BF1AF801808191810E94071F64EF34
:101A100071E080E090E00E94B220D801ED90FC904F
:101A20001E141F043CF0F401108285E891E00E942E
:101A3000EB1AFDC1FCE3EF16F10424F4D8011D926A
:101A40001C9209C0BCE3EB1AF108F801F182E082B4
:101A50008CE3E82EF12C86E791E00E94EB1A60E01F
:101A600080E10E94F71F60E087E00E94F71F60E0BE
:101A700086E00E94F71F60E085E00E94F71F87E381
:101A800091E00E94BF1A8E2D0E94AA1A61E080E1A7
:101A90000E94F71F28EE33E0D7010E9467306B01E8
:101AA0007C0180E00E94341A61E086E00E94F71F0A
:101AB00061E070E080E090E00E94B22060E086E0AB
:101AC0000E94F71F86E291E00E94BF1A8B2D0E94B0
:101AD000AA1A8FE191E00E94BF1AC701B6010E94C5
:101AE000DA1A81E090E001C0880FBA94EAF790E832
:101AF000B92EB80E8EE091E00E94BF1A8B2D0E9485
:101B0000AA1A8B2D0E94341A61E086E00E94F71F0A
:101B100061E070E080E090E00E94B22060E086E04A
:101B20000E94F71F68EC70E080E090E00E94B22015
:101B300061E089E00E947620809180008068809337
:101B400080002091200630912106A6EBB3E00E9490
:101B50002630DC01CB012AE0B695A79597958795AD
:101B60002A95D1F79093890080938800809122066E
:101B700080618093810061E070E080E090E00E94ED
:101B8000B22061E089E00E94762080918000806828
:101B9000809380002091200630912106A2EAB3E0D4
:101BA0000E942630DC01CB013AE0B695A7959795C7
:101BB00087953A95D1F7909389008093880080911A
:101BC000220680618093810061E070E080E090E017
:101BD0000E94B22061E089E00E947620809180001E
:101BE0008068809380002091200630912106A4E82F
:101BF000B3E00E942630DC01CB014AE0B695A79500
:101C0000979587954A95D1F790938900809388009E
:101C10008091220680618093810061E070E080E025
:101C200090E00E94B22061E089E00E9476208091DD
:101C300080008068809380002091200630912106EA
:101C4000A0E7B3E00E942630DC01CB015AE0B69554
:101C5000A795979587955A95D1F79093890080938A
:101C600088008091220680618093810061E070E0AD
:101C700080E090E00E94B22061E089E00E9476203E
:101C800080918000806880938000209120063091B0
:101C90002106A2E5B3E00E942630DC01CB016AE018
:101CA000B695A795979587956A95D1F790938900F2
:101CB000809388008091220680618093810061E09A
:101CC00070E080E090E00E94B22061E089E00E9434
:101CD000762080918000806880938000209120068B
:101CE00030912106A4E3B3E00E942630DC01CB0151
:101CF0007AE0B695A795979587957A95D1F79093C1
:101D00008900809388008091220680618093810001
:101D100061E070E080E090E00E94B22061E089E044
:101D20000E947620809180008068809380002091BE
:101D3000200630912106A0E2B3E00E942630DC01AB
:101D4000CB01EAE0B695A79597958795EA95D1F7E7
:101D5000909389008093880080912206806180930F
:101D60008100C701B6010E94B22080E00E94341AAF
:101D700061E086E00E94F71F61E070E080E090E0A3
:101D80000E94B22060E086E00E94F71F60E087E0DA
:101D90000E94F71F60E086E00E94F71F60E085E088
:101DA0000E94F71F60E080E10E94F71FF694E7941D
:101DB000D794C79430E4C30E3FE1D31EE11CF11C5D
:101DC000C701B60120E43FE140E050E00E94453009
:101DD000C153DF4F39832883CF5CD040A12CB12C75
:101DE00021E030E040E050E069E070E08CE892E013
:101DF0000E940914FFEFAF1ABF0AC153DF4F2881B9
:101E00003981CF5CD040A216B30650F388E691E04A
:101E10000E94BF1A37E0C322DD24EE24FF24C7014D
:101E2000B6010E94DA1AC701B6010E94B2200E5F05
:101E30001F4F4FEF841A940A8CE191E0C553DF4F96
:101E4000A881B981CB5CD0408A179B0709F0C6CD29
:101E500010E0F10181911F01180FC753DF4F288156
:101E60003981C95CD040E217F30799F7113039F492
:101E700060E375E780E090E00E94B22004C0111199
:101E800002C0109286028AE591E00E94BF1A812F5B
:101E90000E94AA1A8091860290E00E94071F7ECDC0
:101EA00064EF71E080E090E00E94B220A9E1CA2EC8
:101EB000A6E0DA2EBAE1EB2EB6E0FB2E0BE116E03F
:101EC0002CE136E04DE156E06EE176E08FE196E000
:101ED0000E948D2B84E591E00E94BF1A80911D061F
:101EE0000E94AA1A0E94252C80918602811119C095
:101EF00082E491E00E94EB1A64E670E080E090E0FA
:101F00000E94B2200FE010E020E030E040E050E01E
:101F100069E070E08CE892E00E9409140150110918
:101F200099F7C651DF4F48815981CA5ED0400FB63C
:101F3000F8945EBF0FBE4DBFC551DF4F0FB6F8948A
:101F4000DEBF0FBECDBFDF91CF911F910F91FF90EC
:101F5000EF90DF90CF90BF90AF909F908F907F9049
:101F60006F905F904F903F902F900895CF92DF92A7
:101F7000EF92FF920F931F93CF93DF936C017A013F
:101F80008B01C0E0D0E0CE15DF0581F0D8016D9166
:101F90008D01D601ED91FC910190F081E02DC601FB
:101FA0000995892B11F02196EECF7E01C701DF91B3
:101FB000CF911F910F91FF90EF90DF90CF900895F8
:101FC000FC01538D448D252F30E0842F90E0821B3F
:101FD000930B541710F0CF96089501970895FC01C4
:101FE000918D828D981761F0828DDF01A80FB11D50
:101FF0005D968C91928D9F5F9F73928F90E0089574
:102000008FEF9FEF0895FC01918D828D981731F02D
:10201000828DE80FF11D858D90E008958FEF9FEF81
:102020000895FC01918D228D892F90E0805C9F4F57
:10203000821B91098F739927089582E295E00E948F
:10204000111021E0892B09F420E0822F0895FC0172
:10205000848DDF01A80FB11DA35ABF4F2C91848D31
:1020600090E001968F739927848FA689B7892C9366
:10207000A089B1898C91837080648C93938D848DB9
:10208000981306C00288F389E02D80818F7D8083BC
:102090000895EF92FF920F931F93CF93DF93EC017C
:1020A00081E0888F9B8D8C8D981305C0E889F98914
:1020B000808185FD26C0F62E0B8D10E00F5F1F4F2F
:1020C0000F731127E02E8C8DE8120CC00FB607FCA1
:1020D000FACFE889F989808185FFF5CFCE010E948A
:1020E0002710F1CF8B8DFE01E80FF11DE35AFF4F52
:1020F000F0829FB7F8940B8FEA89FB898081806218
:102100000AC09FB7F894EE89FF896083E889F9894E
:1021100080818370806480839FBF81E090E0DF9145
:10212000CF911F910F91FF90EF900895CF93DF9380
:10213000EC01888D8823C9F0EA89FB89808185FDBF
:1021400005C0A889B9898C9186FD0FC00FB607FC20
:10215000F5CF808185FFF2CFA889B9898C9185FF61
:10216000EDCFCE010E942710E7CFDF91CF910895E8
:1021700080E090E0892B29F00E941D1081110C94C1
:102180000000089585ED8093BC008091BC0084FD23
:10219000FCCF1092FB0208954091B202262F30E04E
:1021A000240F311D21323105DCF42091FB02243053
:1021B000C9F4FC0180E090E0861758F43091B20237
:1021C0002191DC01AE56BD4FA30FB11D2C9301969A
:1021D000F3CF8091B202680F6093B20280E008955D
:1021E00081E0089582E008950895CF93DF93EC0194
:1021F000E0911706F09118063097F1F090914D0696
:1022000080914C069817C0F090E0292F30E02617F7
:10221000370754F4DE01A20FB31F4C91D901A25B22
:10222000B94F4C939F5FF1CF10924D0660934C06CF
:10223000CB01DF91CF910994DF91CF91089508955B
:10224000E0914D0680914C06E81730F4F0E0E25B37
:10225000F94F808190E008958FEF9FEF089590915E
:102260004D0680914C06981750F4E92FF0E0E25BA0
:10227000F94F208130E09F5F90934D0602C02FEF11
:102280003FEFC901089580914C0690E020914D06E2
:10229000821B91090895CF92DF92EF92FF920F93E4
:1022A0001F93CF93DF937C01CB018A012091FC0225
:1022B000222389F0EB016B01C40ED51ECC15DD0580
:1022C00069F06991D701ED91FC910190F081E02DC9
:1022D000C7010995F3CF642F0E94CC10C801DF918C
:1022E000CF911F910F91FF90EF90DF90CF900895C5
:1022F000CF93DF931F92CDB7DEB769832091FC02A5
:102300002223D1F020911F03203240F021E030E061
:10231000FC013383228380E090E015C08091FD02B0
:10232000E82FF0E0E250FD4F998190838F5F80931A
:10233000FD0280931F0305C061E0CE0101960E945B
:10234000CC1081E090E00F90DF91CF9108950F9332
:1023500040918E0250918F02609190027091910293
:10236000411551056105710599F0082F20E233E010
:1023700080912005909121050E942626882349F00E
:1023800010928E0210928F0210929002109291027F
:1023900081E00F910895FF920F931F93CF93DF93E6
:1023A000EC018D81813011F58C8181FF1FC082FF8E
:1023B0000DC04B895C896D897E898A859B85AC853A
:1023C000BD8584179507A607B70799F400912005E6
:1023D00010912105C8010E9408250E94B528F82EF9
:1023E000C8010E941E258FEFF81649F080E090E0AA
:1023F0002AC0CE010E9459228111E8CFF7CF8C81EB
:1024000085FF08C060E0CE010E94F9218C818F7D9C
:102410008C83ECCF40918E0250918F02609190029C
:1024200070919102452B462B472B21F080E00E94B2
:10243000A711DCCF80618C832A853B85317080E0D9
:1024400092E0821B930BDF91CF911F910F91FF9030
:102450000895CF93DF931F92CDB7DEB7698341E034
:1024600050E0BE016F5F7F4F0E9496260F90DF9174
:10247000CF9108956115710579F0FB01019000205D
:10248000E9F73197AF01461B570BDC01ED91FC9149
:102490000280F381E02D099480E090E008950F938D
:1024A0001F93CF93DF93EC01FB0144815581608141
:1024B0007181E881F9810280F381E02D09958C0119
:1024C00067ED71E0CE010E943A12800F911FDF91FB
:1024D000CF911F910F9108951F920F920FB60F92F7
:1024E00011242F933F934F935F936F937F938F9319
:1024F0009F93AF93BF93EF93FF9382E295E00E9487
:102500002710FF91EF91BF91AF919F918F917F9194
:102510006F915F914F913F912F910F900FBE0F9050
:102520001F9018951F920F920FB60F9211242F93A0
:102530008F939F93EF93FF93E0913205F0913305D2
:102540008081E0913805F091390582FD12C09081BB
:1025500080913B058F5F8F7320913C05821751F06E
:10256000E0913B05F0E0EE5DFA4F958F80933B05DF
:1025700001C08081FF91EF919F918F912F910F90DA
:102580000FBE0F901F9018951F920F920FB60F92CB
:1025900011242F933F934F935F936F937F938F9368
:1025A0009F93AF93BF93EF93FF938091B900887F80
:1025B000803609F49CC068F5883209F45BC090F459
:1025C000803109F454C038F4882309F4F6C0883007
:1025D00009F44DC0F6C0883109F44CC0803209F4CA
:1025E0005DC0EFC0803409F468C048F4803309F45A
:1025F00055C0883309F0E5C08093F902D8C0803512
:1026000009F44FC0883509F45DC0883409F0D9C099
:10261000D6C0883909F4C7C0A8F4883709F467C060
:1026200038F4883609F463C0803709F460C0C9C043
:10263000883809F4B8C0803909F45FC0803809F0DF
:10264000C0C05BC0803B09F486C038F4803A09F40E
:1026500066C0883A09F47FC0B4C0803C09F4A7C0C2
:10266000883C09F4A4C0883B09F48AC0AAC08091C0
:10267000D60210C09091F8028091F702981770F579
:10268000E091F80281E08E0F8093F802F0E0E952C9
:10269000FD4F80818093BB0085EC86C08093F9025A
:1026A0008EC0E091F80281E08E0F8093F802809155
:1026B000BB00F0E0E952FD4F80839091F8028091D9
:1026C000F7026EC0E091F80281E08E0F8093F8026D
:1026D0008091BB00F0E0E952FD4F80838091FA02C7
:1026E00081116DC081E08093D50284EA61C083E0EE
:1026F0008093FB021092D402CFCF8091D40280321B
:1027000008F051C0E091D40281E08E0F8093D40292
:102710008091BB00F0E0EC54FD4F8083BDCF85EC91
:102720008093BC001092FB028091D402803230F47E
:10273000E091D402F0E0EC54FD4F10826091D4029D
:1027400070E0E0912306F091240684EB92E0099575
:102750001092D40236C084E08093FB021092B30240
:102760001092B202E0912506F0912606099580911B
:10277000B202811105C081E08093B20210929202F0
:10278000E091B30281E08E0F8093B302F0E0EE5649
:10279000FD4F80818093BB009091B3028091B20283
:1027A000981708F479CF85E88093BC000AC085ECBF
:1027B0008093BC001092FB0204C01092F9020E94A8
:1027C000C210FF91EF91BF91AF919F918F917F9137
:1027D0006F915F914F913F912F910F900FBE0F908E
:1027E0001F9018951F920F920FB60F9211248F937E
:1027F0000FB6F894A895809160008861809360007E
:10280000109260000FBE8F910F900FBE0F901F901F
:1028100018954115510529F4EAE7F0E080818F779A
:1028200080836A307105A9F063FD02C088E001C0B1
:1028300088E26770682B88E10FB6F894A8958093BA
:1028400060000FBE60936000E0E6F0E0808180648D
:102850008083232BA1F483B7817F846083BFF894A6
:1028600083B7816083BF85B7806685BF8F7D85BF55
:102870007894889583B78E7F83BF78940EC083B792
:10288000817F846083BFF89483B7816083BF78942D
:10289000889583B78E7F83BF7894452B29F4EAE728
:1028A000F0E080818068808308950F93CF939091AA
:1028B0008D029923F9F0C82F409102015091030134
:1028C0006091040170910501082F20E233E08091AE
:1028D0002005909121050E942626811102C080E0EA
:1028E0000AC0CC2339F08C2F0E94A7118823B9F39A
:1028F00010928D0281E0CF910F9108958F929F9257
:10290000AF92BF92EF92FF920F931F93CF934B0121
:102910005C01C42F8091020190910301A0910401F8
:10292000B091050188159905AA05BB0509F181E05B
:102930000E945514811102C080E020C080E2E82E80
:1029400083E0F82E00E012E020E030E0B501A401C1
:1029500080912005909121050E949225882361F3A2
:102960008092020190920301A0920401B0920501AD
:1029700080918D02C82BC0938D0281E0CF911F9171
:102980000F91FF90EF90BF90AF909F908F90089520
:102990004F925F926F927F928F929F92AF92BF926F
:1029A000CF92DF92EF92FF920F931F93CF93DF931B
:1029B000EC01423051056105710510F480E078C0EA
:1029C00089859A85AB85BC850196A11DB11D8417AB
:1029D0009507A607B70790F3CB88DC88ED88FE88BB
:1029E0008F89803129F4BB27A72F962F852F09C007
:1029F000DB01CA01E7E0B695A79597958795EA951B
:102A0000D1F7480159012A013B01C80ED91EEA1E1F
:102A1000FB1E8091020190910301A0910401B091ED
:102A20000501C816D906EA06FB0681F48F898031B4
:102A3000A9F4B301A201552766277727440F551F34
:102A4000FA01E05EFC4F9182808219C040E0C7012C
:102A5000B6010E947E148111E9CFB0CFB301A2016B
:102A60004F77552766277727440F551F440F551F6B
:102A7000FA01E05EFC4F80829182A282B382809153
:102A80008D02816080938D028A89823080F08D81F1
:102A90009E81AF81B885C80ED91EEA1EFB1EC0926A
:102AA0008E02D0928F02E0929002F092910281E029
:102AB000DF91CF911F910F91FF90EF90DF90CF901A
:102AC000BF90AF909F908F907F906F905F904F904E
:102AD00008958F929F92AF92BF92CF92DF92EF9222
:102AE000FF920F931F93CF93DF93FC018185928513
:102AF000A385B4850196A11DB11D84179507A6076E
:102B0000B70710F480E05BC083889488A588B688F6
:102B10008789803129F4BB27A72F962F852F09C0DD
:102B2000DB01CA01C7E0B695A79597958795CA9529
:102B3000D1F7E9016A017B018F01BC01CD01680D6C
:102B4000791D8A1D9B1D8090020190900301A09029
:102B50000401B0900501681579058A059B0591F47B
:102B6000F80187898031A1F4DD24EE24FF24C60119
:102B7000880F991FFC01E05EFC4F80819181A0E0ED
:102B8000B0E018C040E00E947E148111E9CFBACFB6
:102B9000E894C7F8DD24EE24FF24C601880F991FAE
:102BA000880F991FFC01E05EFC4F80819181A2811A
:102BB000B381BF7088839983AA83BB8381E0DF914F
:102BC000CF911F910F91FF90EF90DF90CF90BF902A
:102BD000AF909F908F9008952F923F924F925F9267
:102BE0006F927F928F929F92AF92BF92CF92DF921D
:102BF000EF92FF920F931F93CF93DF93CDB7DEB782
:102C00002B970FB6F894DEBF0FBECDBF7C01FE013F
:102C10003196CE010C966F0130E23193E817F90737
:102C2000E1F7DA0130E087E09D91992331F19E329E
:102C300031F48A3009F46DC138E08AE0F5CFECEE6A
:102C4000F2E04491442321F031969413FACF61C10C
:102C5000831708F45EC14FED490F4E3508F059C196
:102C600041E0430FF601E30FF11D3FE9390F3A311F
:102C700008F490529083342FD7CF8981803209F4A1
:102C800048C1322E8B01DB015B968D919C915C9744
:102C9000F701948F838F16961D921D921D921C92A0
:102CA0001997FB011286138614861586B12CF8013C
:102CB00082859385A485B5854389548965897689FC
:102CC00084179507A607B70708F05BC025E0B695FF
:102CD000A795979587952A95D1F7F82FFF70AF2E76
:102CE000D80115968C91823008F413C1C8010E9456
:102CF0000C2997FD0EC1F80182859385A485B585C1
:102D00004F96A11DB11D82879387A487B587F0E2F6
:102D1000AF9EB0011124605E7C4F6115710509F40E
:102D2000F8C0DB018C91882319F0853EC1F4F3C013
:102D3000B1100EC0F701A28A8091020190910301A7
:102D4000A0910401B091050186879787A08BB18B74
:102D5000DB018C91882399F0BB24B394A8CF4BE07E
:102D600050E0C6010E94D534892B09F0A0CF832DF5
:102D70008073803309F4CDC0432D6A2DC6C0BB24B7
:102D8000B394832D8271823109F0C3C0BB20C1F09E
:102D9000F701668577858089918941E00E947E14DC
:102DA000882309F4B6C0D70152968C91B0E28B9F6C
:102DB000C0011124805E9C4F009709F079C0A9C022
:102DC000F8018581823009F4A4C0C8010E94FB2368
:102DD000882309F49EC0D8015B96ED91FC915C9725
:102DE00016968D909D90AD90BC901997B2E08B1A7D
:102DF0009108A108B108058404C0880C991CAA1C7C
:102E0000BB1C0A94D2F786859785A089B189880E64
:102E1000991EAA1EBB1E2480E1E08E1A9108A1080B
:102E2000B108222011F124013501420C511C611C12
:102E3000711C81E00E945514882309F46AC0E0E205
:102E4000F3E0119225E0E032F207D9F74092020157
:102E500050920301609204017092050180918D02ED
:102E6000816080938D022A94DCCFD8015B96ED912E
:102E7000FC915C9780E092E0A0E0B0E0058404C0A3
:102E8000880F991FAA1FBB1F0A94D2F7F801438924
:102E9000548965897689840F951FA61FB71F838B78
:102EA000948BA58BB68BD70152961C9280E293E04F
:102EB00020E2FC0111922A95E9F72BE0F601DC01F2
:102EC00001900D922A95E1F721E238E2DC0151965A
:102ED0003C932E93509740E058E01F965C934E939E
:102EE0001E9753963C932E93529759963C932E934C
:102EF000589757965C934E93569781E00E945514CD
:102F0000882339F0432DF7016289C7010E94F0221E
:102F100005C080E003C0B1101FCF0CCF2B960FB6B9
:102F2000F894DEBF0FBECDBFDF91CF911F910F91FF
:102F3000FF90EF90DF90CF90BF90AF909F908F90D9
:102F40007F906F905F904F903F902F90089581E415
:102F500080937C0080917A00806480937A008091D5
:102F60007A0086FDFCCF809178002091790090E076
:102F7000922B0895FC0124813581FB014481558108
:102F80002417350721F5FC0180819181FB016081C7
:102F90007181009719F061157105A1F46115710532
:102FA00049F0232BB1F0FB01808190E09195819550
:102FB00091090AC0009769F0232B59F0FC01808128
:102FC00090E002C00E94F63421E0892B19F020E045
:102FD00001C021E0822F08958F929F92AF92BF92FD
:102FE000CF92DF92EF92FF92CF93DF93C82F8DECB9
:102FF00095E09093210580932005CC2369F1C5309D
:1030000010F080E00CC140E060E070E0CB010E9475
:103010007E148823B1F320E1C29FC0011124805F98
:103020009C4FFC01E254FE4F20812F7751F73C96D4
:10303000408151816281738144365105610571057A
:1030400000F33497C080D180E280F380C114D104B2
:10305000E104F10421F4D5CFC12CD12C760140E05C
:10306000C701B6010E947E14882359F280912B0378
:1030700090912C038115924021F6A0913003AA2350
:1030800009F4BFCF60912E0370912F036115710574
:1030900009F4B7CF20912D03222309F4B2CFA093D6
:1030A000EB052093DD0580E030E041E050E0C82FE3
:1030B000FA01082E02C0EE0FFF1F0A94E2F72E1746
:1030C0003F0739F08F5FC83091F789E08093E605BC
:1030D00098CF8093E6052091360330913703211570
:1030E000310519F040E050E008C0209144033091D0
:1030F000450340914603509147032093DE053093EA
:10310000DF054093E0055093E10546015701860E27
:10311000971EA11CB11C8092EC059092ED05A09227
:10312000EE05B092EF05E0913103F0913203F09398
:10313000F205E093F105B0E00E94E42F860E971EA1
:10314000A81EB91E8092F3059092F405A092F50591
:10315000B092F60585E0EE0FFF1F8A95E1F7E1508A
:10316000FE4FEF2FFF27E6958E0E9F1EA11CB11C70
:103170008092E7059092E805A092E905B092EA05F1
:1031800020913303309134032115310521F0A90139
:1031900060E070E008C040914003509141036091AD
:1031A000420370914303D701C60188199909AA09FE
:1031B000BB09840F951FA61FB71F04C0B695A7951E
:1031C00097958795CA95D2F78093E2059093E3058A
:1031D000A093E405B093E505853F2FE09207A10594
:1031E000B10510F48CE018C0853F9F4FA105B105D3
:1031F00010F480E111C080914C0390914D03A09197
:103200004E03B0914F038093F3059093F405A09380
:10321000F505B093F60580E28093F00581E0DF913B
:10322000CF91FF90EF90DF90CF90BF90AF909F90A5
:103230008F900895E2E2F5E0A089B18982E08C9355
:10324000A485B5851C92A685B7858FEC8C93108ECE
:10325000A489B58986E08C93A289B3898C91806119
:103260008C93A289B3898C9188608C93A289B3894D
:103270008C9180688C930288F389E02D80818F7D0A
:1032800080830895EF92FF920F931F93CF93DF9364
:10329000EC017B018A011B821A8288EE93E0A0E098
:1032A000B0E08C839D83AE83BF838FE691E09983EA
:1032B00088838DE190E00E94E9329A8F898F009790
:1032C00079F02DE1F701DC0101900D922A95E1F7EB
:1032D0004CE050E0B801CE010C960E940635188EE5
:1032E000DF91CF911F910F91FF90EF9008954F9232
:1032F0005F926F927F92AF92BF92CF92DF92EF92E6
:10330000FF920F931F93CF93DF9300D000D0CDB7E0
:10331000DEB78C0149835A836B837C835901C12CAE
:10332000D12C7601412C82E0582E612C712C4981E0
:103330005A816B817C819E012F5F3F4FC8010E94A3
:103340006915882351F1D301C201F801058404C035
:10335000880F991FAA1FBB1F0A94D2F7C80ED91E47
:10336000EA1EFB1E49815A816B817C8187898031ED
:1033700029F088EF9FEFAFEFBFE004C088EF9FEF29
:10338000A0E0B0E0481759076A077B0780F2F50113
:10339000C082D182E282F38281E00F900F900F9081
:1033A0000F90DF91CF911F910F91FF90EF90DF90E1
:1033B000CF90BF90AF907F906F905F904F900895A7
:1033C000CF93DF93FC012581222311F080E049C0D7
:1033D000EC018091F0058031C1F482E08583178A89
:1033E000108E118E128E8091F1059091F205A0E061
:1033F000B0E025E0880F991FAA1FBB1F2A95D1F7BF
:10340000838B948BA58BB68B19C08032F9F683E041
:1034100085834091F3055091F4056091F505709115
:10342000F605478B508F618F728F9F012D5E3F4F46
:1034300089ED95E00E947719882341F289ED95E0A6
:103440009C8F8B8F81E08C831E821F821886198649
:103450001A861B861C861D861E861F86188A198A58
:103460001A8ADF91CF9108950F931F93CF93DF9323
:10347000C7E0D0E0082F10E0B8010C2E02C075950F
:1034800067950A94E2F7617085E00E94F71F61E09A
:1034900087E00E94F71F60E087E00E94F71F2197F6
:1034A00058F7DF91CF911F910F91089580E00E940E
:1034B000341A61E086E00E94F71F61E070E080E06E
:1034C00090E00E94B22060E086E00C94F71F8F929B
:1034D0009F92AF92BF920F931F93CF93DF93CDB77D
:1034E000DEB7A1970FB6F894DEBF0FBECDBF19A20D
:1034F000423008F44AE08E010F5D1F4F842E912C5C
:10350000A12CB12CA50194010E944530E62FB901F0
:10351000CA0101501109EA3014F4E05D01C0E95C10
:10352000D801EC93232B242B252B61F7B80182E2E1
:1035300095E00E943A12A1960FB6F894DEBF0FBE36
:10354000CDBFDF91CF911F910F91BF90AF909F9012
:103550008F900895CF93DF93682F70E080E090E024
:103560004AE00E94671AEC0167ED71E082E295E0A3
:103570000E943A128C0F9D1FDF91CF9108950F93F7
:103580001F93CF93DF938C01C0E0D0E0F801EC0FE4
:10359000FD1F6491662341F082E295E00E9449108C
:1035A000892B11F02196F2CFCE01DF91CF911F919F
:1035B0000F910895CF93DF934AE00E94671AEC01C0
:1035C00067ED71E082E295E00E943A128C0F9D1F38
:1035D000DF91CF910895CF93DF930E94BF1AEC0142
:1035E00067ED71E082E295E00E943A128C0F9D1F18
:1035F000DF91CF9108958F929F92AF92BF92CF9219
:10360000DF92EF92FF92CF938091FC05882321F007
:1036100087EF95E00E94EE231092D8051092D60510
:103620001092D3051092D2058AE08093D1050E94B2
:10363000EC206B017C0161E08091D1050E94762035
:1036400061E08091D1050E94F71FCFB7F894809177
:103650001606811127C0E4E2F3E08491E0E1F3E093
:103660009491E82FF0E0EE0FFF1FE450FD4FA5917D
:10367000B491EC91E92321F461E08AE00E94F71F04
:1036800061E08AE00E9476208CB580618CBD8CB5AB
:1036900080648CBD61E08DE00E94762061E08BE06B
:1036A0000E947620809116068F5F80931606CFBF0A
:1036B00082E58093CB051092CC058091CB0590914B
:1036C000CC050E94B828CAE08FEF0E94AE28C150F6
:1036D000D9F78DEC95E00E94082520E030E0A901A3
:1036E00060E08DEC95E00E944325C82F8093D705BC
:1036F000813049F00E94EC206C197D09613D7740D2
:1037000060F381E054C02AEA31E040E050E068E034
:103710008DEC95E00E94432582FF03C0C093D8053D
:103720000EC0C4E00E94B5288093D705C150D1F7E0
:103730008A3A11F082E03BC082E08093D805809104
:10374000D805823021F0812C912C540105C0812CA8
:10375000912CA12C80E4B82E20E030E0A90167E391
:103760008DEC95E00E944325A501940169E28DEC62
:1037700095E00E9443258093D705882349F00E9455
:10378000EC206C197D09613D774030F388E00FC073
:103790008091D805823001F520E030E0A9016AE38C
:1037A0008DEC95E00E944325882341F086E08093CC
:1037B000D2058DEC95E00E941E2529C00E94B528F7
:1037C000807C803C19F483E08093D8050E94B52862
:1037D0000E94B5280E94B5288DEC95E00E941E2518
:1037E00080E58093CB051092CC0581E00E94EC1718
:1037F000882341F087EF95E00E94E01991E0811164
:1038000007C005C080E00E94EC178111F3CF90E063
:10381000892FCF91FF90EF90DF90CF90BF90AF9026
:103820009F908F90089530911F03313208F04BC064
:103830008091FB028111FCCF90911E0322E0209326
:10384000FB0221E02093FA022FEF2093F90210925D
:10385000F8023093F702EEEFF2E0A7EDB2E020E0DD
:10386000321721F041914D932F5FFACF1092D6027B
:103870002091D602990F922B9093D6029091D50267
:10388000913061F41092D5029091D6029093BB00D2
:103890009091BC0093FDF8CF95EC01C095EE90930C
:1038A000BC009091FB029230E1F39091F9029F3FAE
:1038B00079F08091F902803241F08091F9028033F1
:1038C00031F084E005C081E003C082E001C083E004
:1038D0001092FD0210921F031092FC0208958F9225
:1038E0009F92AF92BF92CF92DF92EF92FF920F938F
:1038F0001F93CF93DF93CDB7DEB7C654D1090FB670
:10390000F894DEBF0FBECDBFA82E6B018A0180E404
:10391000EAE2F1E0DE01119601900D928A95E1F75D
:1039200061E081E10E94F71F96E0892E91E0992ED7
:1039300084E0A89E50011124E12CF12CF701EA0D3E
:10394000FB1D81E090E08C0F9D1FE80FF91F608147
:10395000F40181914F010E94F71FFFEFEF1AFF0A58
:1039600084E0E816F10451F762E072E0CE018F5B6B
:103970009F4F0E94C921BE016F5B7F4FC6010E940D
:10398000BA17F82ECE018F5B9F4F0E94C421FF20F3
:1039900001F161E08FE00E94762063E070E080E05A
:1039A00090E00E94B22060E08FE00E94F71F60E08C
:1039B00081E10E94F71F62E070E080E090E00E94E9
:1039C000B22061E081E10E94F71F60E08FE00E9479
:1039D00076206AE072E0CE018F5B9F4F0E94C92182
:1039E000BE016F5B7F4FC6010E94BA17F82ECE0151
:1039F0008F5B9F4F0E94C421FF2001F161E08FE0A7
:103A00000E94762063E070E080E090E00E94B220A7
:103A100061E08FE00E94F71F60E081E10E94F71FE4
:103A200062E070E080E090E00E94B22061E081E11D
:103A30000E94F71F60E08FE00E9476206AED71E03F
:103A4000CE018F5B9F4F0E94C921BE016F5B7F4FEC
:103A5000C6010E94BA17F82ECE018F5B9F4F0E94BD
:103A6000C421FF2009F461C060E08FE00E9476204D
:103A700060E081E10E94F71F63E070E080E090E089
:103A80000E94B2200E94A717F801918380830E94B0
:103A9000A717F801918380830E94A717F8019183EB
:103AA00080830E94A717F801918380830E94A71743
:103AB000F801918380830E94A717F8019183808386
:103AC00085E0A82EB12CC12CD12C76010E94A7171D
:103AD000BC01990F880B990B0E94C72E9B01AC016A
:103AE000C701B6010E94CB316B017C01F1E0AF1A36
:103AF000B10861F720E030E040EA50E40E9437323C
:103B000020E030E040E05FE30E94CB310E94A93228
:103B1000F8017183608361E070E080E090E00E94D2
:103B2000B22061E081E10E94F71FCA5BDF4F0FB650
:103B3000F894DEBF0FBECDBFDF91CF911F910F91E3
:103B4000FF90EF90DF90CF90BF90AF909F908F90BD
:103B500008953FB7F8948091730690917406A091F0
:103B60007506B091760626B5A89B05C02F3F19F0C3
:103B70000196A11DB11D3FBFBA2FA92F982F8827ED
:103B8000820F911DA11DB11DBC01CD0142E0660F48
:103B9000771F881F991F4A95D1F708950E94D03446
:103BA0000F931F93CF93DF93EC0188819981009746
:103BB00029F02A813B812617370788F48B016F5F34
:103BC0007F4F0E940A34009761F0998388831B839A
:103BD0000A832C813D81232B11F4FC01108281E0AA
:103BE00001C080E0DF91CF911F910F910895CF9395
:103BF000DF93EC0188819981009711F00E94813355
:103C0000198218821D821C821B821A82DF91CF9139
:103C1000089591E09093FC0280931E031092FD02A0
:103C200010921F0308959091FB029111FCCF613215
:103C300008F060E291E09093FB029093FA022FEF7C
:103C40002093F9021092F802260F2093F702909326
:103C5000D6029091D602880F892B8093D60280914C
:103C6000D502813061F41092D5028091D602809302
:103C7000BB008091BC0083FDF8CF85EC01C085EED0
:103C80008093BC008091FB028130E1F38091F802C7
:103C9000861710F46091F802A7EDB2E0EEE4F6E0CA
:103CA00080E0861721F09D9191938F5FFACF10925B
:103CB0004D0680934C060895CF93C82F86E70E9447
:103CC000091E6C2F8FEB95E00E9478110E94131C47
:103CD00061E070E086E790E00E94131E90914C0630
:103CE00080914D069817F1F38FEB95E00E942F110C
:103CF000CF910895EF92FF920F931F93CF93DF938D
:103D00006115710511F480E01CC041155105C1F029
:103D10007B01EC018C819D818A01080F191FB8017C
:103D2000CE010E94D01D882371F3288139818C81B6
:103D30009D81B701820F931F0E94FF341D830C8366
:103D400081E0DF91CF911F910F91FF90EF90089547
:103D5000FB0144815581608171810C947A1E1F930F
:103D6000CF93DF93182F86E70E94091E612F8FEBF8
:103D700095E00E9478110E94131C62E070E086E7D3
:103D800090E00E94131E80914C0690E020914D0619
:103D9000821B910982309105ECF38FEB95E00E9434
:103DA0002F11182F8FEB95E00E942F11D12F20E0BB
:103DB000C22F9E01282BC901DF91CF911F91089539
:103DC0000E94AF1E9827892798270895CF92DF92E7
:103DD000EF92FF92CF93DF936B017C016DE282E261
:103DE00095E00E944910EC0166277727CB016C19FA
:103DF0007D098E099F094AE00E94671A8C0F9D1F5A
:103E0000DF91CF91FF90EF90DF90CF900895CF9307
:103E1000DF93BC01990F880B990B97FF03C00E9499
:103E2000E61E03C04AE00E94671AEC0167ED71E0EC
:103E300082E295E00E943A128C0F9D1FDF91CF9194
:103E400008958F929F92AF92BF92CF92DF92EF929E
:103E5000FF92F82E86E70E94091E6F2D8FEB95E0EA
:103E60000E9478110E94131C63E070E086E790E0E6
:103E70000E94131E80914C0690E020914D06821BFB
:103E8000910983309105ECF38FEB95E00E942F119F
:103E90004C01990FAA08BB08BA2CA92C982C88248D
:103EA0008FEB95E00E942F116C01990FEE08FF082F
:103EB000C828D928EA28FB28FE2CED2CDC2CCC24A1
:103EC0008FEB95E00E942F11092E000CAA0BBB0B63
:103ED000BC01CD016C297D298E299F29FF90EF908F
:103EE000DF90CF90BF90AF909F908F9008958F926A
:103EF0009F92AF92BF92CF92DF92EF92FF928AEFA2
:103F00000E94211FE7E2F6E020813181C72ED82EE2
:103F1000E92EFF24E7FCFA94C21AD30AE108F1085B
:103F2000DC01CB0157E0B595A795979587955A95F4
:103F3000D1F7220F331F4C015D01821A930AA108A9
:103F4000B108A5019401A281B3810E946E304B019A
:103F50005C017BE0B594A794979487947A95D1F708
:103F6000A7019601C701B6010E9435309B01AC0143
:103F7000ACE05595479537952795AA95D1F7A4813B
:103F8000B5810E946E30DC01CB012EE0B595A7957E
:103F9000979587952A95D1F7A5019401280F391F88
:103FA0004A1F5B1F21A332A343A354A3A5E0B0E0A3
:103FB0000E94E42FDC01CB0180589F4FAF4FBF4FD1
:103FC000692F7A2F8B2F992787FD9A950E94C72EEC
:103FD00020E030E048EC52E40E943732FF90EF904E
:103FE000DF90CF90BF90AF909F908F90089590E01A
:103FF000FC01EE55FC4F2491FC01EA5FFC4F34912B
:10400000FC01E65EFC4FE491EE2309F43CC0222360
:1040100039F1233091F038F42130A9F0223001F544
:1040200084B58F7D12C0273091F02830A1F0243064
:10403000B9F4809180008F7D03C0809180008F77DC
:10404000809380000DC084B58F7784BD09C08091B6
:10405000B0008F7703C08091B0008F7D8093B00057
:10406000F0E0EE0FFF1FE856FC4FA591B4919FB70B
:10407000F894611104C08C913095382302C0EC9102
:104080003E2B3C939FBF089510924D0610924C0614
:104090001092FD0210921F031092FB0281E08093A8
:1040A000FA021092D50261E082E10E94F71F61E0FE
:1040B00083E10E94F71FE9EBF0E080818E7F80832F
:1040C00080818D7F808388E48093B80085E480932D
:1040D000BC0084EF90E1909326068093250685EF3F
:1040E00090E190932406809323060895CF93DF9365
:1040F00090E0FC01EA5FFC4F2491FC01E65EFC4F7E
:104100008491882361F190E0880F991FFC01E450AD
:10411000FD4FC591D491FC01E856FC4FA591B49197
:10412000611109C09FB7F894888120958223888304
:10413000EC912E230BC0623061F49FB7F894888114
:10414000322F309583238883EC912E2B2C939FBFA5
:1041500006C08FB7F894E8812E2B28838FBFDF919C
:10416000CF9108958F929F92AF92BF92CF92DF929C
:10417000EF92FF926B017C010E94A91D4B015C0133
:10418000C114D104E104F104F1F00E94A91DDC0185
:10419000CB0188199909AA09BB09883E9340A1055A
:1041A000B10570F321E0C21AD108E108F10888EEE8
:1041B000880E83E0981EA11CB11CC114D104E10437
:1041C000F10419F7DDCFFF90EF90DF90CF90BF9013
:1041D000AF909F908F9008952FB7F89460916F06DD
:1041E0007091700680917106909172062FBF0895AC
:1041F0001F920F920FB60F9211242F933F938F931C
:104200009F93AF93BF9380916F0690917006A0919A
:104210007106B091720630916E0623E0230F2D37A0
:1042200020F40196A11DB11D05C026E8230F0296BA
:10423000A11DB11D20936E0680936F0690937006AA
:10424000A0937106B09372068091730690917406E4
:10425000A0917506B09176060196A11DB11D8093BF
:10426000730690937406A0937506B0937606BF917B
:10427000AF919F918F913F912F910F900FBE0F9013
:104280001F901895EF92FF920F931F93CF93DF9398
:10429000EC018B016115710551F0CB010E94822E5A
:1042A0007C01BC01CE010E94D01D811104C0CE0151
:1042B0000E94F71D07C0FD82EC82B80188819981B8
:1042C0000E947B2ECE01DF91CF911F910F91FF9025
:1042D000EF900895EF92FF920F931F93CF93DF9388
:1042E000EC017B018A01BA010E94D01D811104C03A
:1042F000CE010E94F71D07C01D830C83B701888182
:1043000099810E94FF34CE01DF91CF911F910F91CF
:10431000FF90EF900895EF92FF920F931F93CF932A
:10432000DF93CDB7DEB729970FB6F894DEBF0FBE87
:10433000CDBF8C01862FF801118210821382128268
:10434000158214824AE09E012F5F3F4F7901B90127
:1043500090E00E94962EF70101900020E9F7319736
:10436000AF014E195F09B701C8010E946A21299661
:104370000FB6F894DEBF0FBECDBFDF91CF911F9176
:104380000F91FF90EF900895FC01808191810C9432
:104390008133FC01118210821382128215821482F1
:1043A0006115710551F0FB0101900020E9F731978B
:1043B000AF01461B570B0C946A2108950F931F936E
:1043C000CF93DF93EB010E94EC208B010E94B52874
:1043D0008F3F49F00E94EC20601B710B6C177D072A
:1043E000A8F380E001C081E0DF91CF911F910F9190
:1043F0000895FF920F931F93CF93DF93FC012581C4
:10440000222309F44FC0F62EEC01848187FF3DC0C2
:10441000668577858089918941E00E947E14882392
:1044200009F440C00A89F0E20F9F80011124005E68
:104430001C4F01151105B1F18D81823048F48B8933
:104440009C89AD89BE89F801848F958FA68FB78F1F
:104450008F89988DA98DBA8DF801938F828FB58B36
:10446000A48BE0912801F0912901309759F0B8010F
:104470006A5E7F4FC80148960995F801808D918D3D
:10448000938B828B8C818F778C83F11003C08C810E
:104490008F7E8C838F2DDF91CF911F910F91FF9095
:1044A0000C94551480E0DF91CF911F910F91FF90F4
:1044B00008958F929F92AF92BF92CF92DF92EF9228
:1044C000FF920F931F93CF93DF93EC018D818111A6
:1044D00002C080E078C00B891C892D893E890417B1
:1044E000150726073707A8F36A017B01823029F4F4
:1044F000CA86DB86EC86FD860DC0C114D104E104BA
:10450000F10451F41E821F82188619861A861B86B2
:104510001C861D8681E057C08A849B84AC84BD8440
:10452000EB8DFC8D258530E0275F3F4FB501A40161
:104530004150510961097109022E04C076956795B1
:10454000579547950A94D2F7D701C6010197A1095B
:10455000B10904C0B695A795979587952A95D2F786
:1045600084179507A607B70720F089288A288B2883
:1045700071F44F89588D698D7A8D4E835F8368877A
:1045800079874C015D018E010A5F1F4F16C0841BA5
:10459000950BA60BB70BF5CF4E815F8168857985AA
:1045A00098018B8D9C8D0E94691591E0891A910864
:1045B000A108B108882309F48CCF81149104A104C7
:1045C000B10451F795CFDF91CF911F910F91FF90DB
:1045D000EF90DF90CF90BF90AF909F908F90089515
:1045E0008F929F92AF92BF92CF92DF92EF92FF9203
:1045F0000F931F93CF93DF9300D000D0CDB7DEB7DA
:104600007C0180E2689FF0011124E05EFC4F9385FD
:10461000917121F0842F827409F08FC0142FD7017B
:1046200052966C9352974091020150910301609110
:104630000401709105011E964D935D936D937C93DB
:1046400051974489558960E070E0BA0155274427A5
:10465000828D938DA0E0B0E0482B592B6A2B7B2BE9
:10466000D70157964D935D936D937C935A978385AD
:10467000887159F4848D958DA68DB78DF701838B44
:10468000948BA58BB68B81E012C0803109F055C0A8
:1046900097012D5E3F4FD7015B968D919C915C9762
:1046A0000E947719882309F448C084E0F7018583C4
:1046B000812F8F70D70114968C931497F70116826F
:1046C0001782108611861A961D921D921D921C92B9
:1046D0001D9716FF34C015968C91813071F511FF2E
:1046E0002CC0F7014389548965897689452B462B6F
:1046F000472B09F462C040E050E0BA01C7010E94B4
:1047000059228823D1F0F7018788908CA18CB28C34
:10471000C38CD48C82E090E0A0E0B0E0F60180830E
:104720009183A283B3839E012F5F3F4FB501A40104
:10473000C6010E946915811104C080E03EC081E07D
:104740003CC000E010E09801B501A401C6010E9440
:10475000C814882391F389809A80AB80BC80D601ED
:1047600057968C91803129F088EF9FEFAFEFBFE033
:1047700004C088EF9FEFA0E0B0E088169906AA0673
:10478000BB0688F2D70157961D921D921D921C926E
:104790005A97F701138A148A158A168A84818068C9
:1047A000848361E0C7010E94F921882331F240E04F
:1047B00050E0BA01C7010E9459220F900F900F904C
:1047C0000F90DF91CF911F910F91FF90EF90DF90AD
:1047D000CF90BF90AF909F908F900895CF93DF932D
:1047E000EC0161E00E94F921882311F01D8281E033
:1047F000DF91CF9108953F924F925F926F927F9297
:104800008F929F92AF92BF92CF92DF92EF92FF92E0
:104810000F931F93CF93DF93CDB7DEB72C970FB6CF
:10482000F894DEBF0FBECDBF5C01DC015B968D90BE
:104830009C905C971696CD90DD90ED90FC9019972A
:10484000C114D104E104F10439F0BFEFCB1ADB0A43
:10485000EB0AFB0A312C07C0F401C080D180E28052
:10486000F38033243394F40181859285A385B48544
:104870009C01AD012F5F3F4F4F4F5F4F29873A8714
:104880004B875C87260137011D821E821F82188696
:10489000F40181859285A385B4852D813E814F8168
:1048A0005885281739074A075B0708F063C08985D0
:1048B0009A85AB85BC858C159D05AE05BF0550F46A
:1048C00082E0C82ED12CE12CF12C92E0492E512C03
:1048D000612C712C9E012F5F3F4FB701A601C401CF
:1048E0000E946915882309F445C089819A81AB81AA
:1048F000BC81892B8A2B8B2B41F0260137019FEF3E
:10490000491A590A690A790A05C0C414D504E6048B
:10491000F70491F02D813E814F8158852F5F3F4FE5
:104920004F4F5F4F2D833E834F8358873FEFC31A0E
:10493000D30AE30AF30AACCF0FEF1FEF2FEF3FE0EC
:10494000B301A201C4010E94C814882399F0D501C3
:1049500016964D915D916D917C9119974115510578
:104960006105710549F093018201C4010E94C814D8
:10497000811102C080E02EC0D50116964D925D9245
:104980006D927C921997332051F0D301C2010196A8
:10499000A11DB11DF40180839183A283B383F5012E
:1049A0008789908DA18DB28D892B8A2B8B2B69F4F1
:1049B000D50157964D925D926D927C925A971496BE
:1049C0008C911497806814968C93F5018481806291
:1049D000848381E02C960FB6F894DEBF0FBECDBF66
:1049E000DF91CF911F910F91FF90EF90DF90CF90CB
:1049F000BF90AF909F908F907F906F905F904F90FF
:104A00003F9008958FB7F894809177068FBF0895EF
:104A1000CF93DF93EC0180917806811109C081E08A
:104A2000809378068091CB059091CC050E94B828A0
:104A300060E08C81DF91CF910C94F71F61E0FC0165
:104A400084810E94F71F8091780681111092780668
:104A50000895CF93DF93EC018E81882389F08F81B5
:104A600098859C012F5F3F4F38872F83823092407B
:104A700018F40E94B528F3CFCE010E941E251E8295
:104A8000DF91CF9108958F929F92AF92BF92FF9244
:104A90000F931F93CF93DF93EC01F62E49015A0138
:104AA0000E942925CE010E9408256CE271E0CE010A
:104AB0000E94DE218F2D80640E94AE2808E110E064
:104AC000D501C401002E04C0B695A795979587958A
:104AD0000A94D2F70E94AE2808501109083F8FEFC0
:104AE000180771F7FF2029F088E0F81204C087E862
:104AF00003C085E901C08FEF0E94AE2810E00E943C
:104B0000B5288A8787FF04C01F3F11F01F5FF7CFCA
:104B1000DF91CF911F910F91FF90BF90AF909F9029
:104B20008F900895AF92BF92CF92DF92EF92FF9253
:104B30000F931F93CF93DF93EC016901C801820F9C
:104B4000931F8130924008F070C08E81882371F0ED
:104B500088819981AA81BB8184179507A607B70729
:104B600029F48F819885C816D906B0F548835983F2
:104B70006A837B838B85833039F089E0440F551F2E
:104B8000661F771F8A95D1F79A01AB0161E1CE01CB
:104B90000E944325882319F083E08D8346C00E943C
:104BA000EC205B010E94B5288A878F3F49F40E9460
:104BB000EC206A197B096D327140A0F38FE003C0CD
:104BC0008E3F31F08DE08D83CE010E941E252DC0D9
:104BD00018861F8281E08E838F8198858C159D05B4
:104BE00040F40E94B5288F819885019698878F831D
:104BF000F3CF6701E00EF11EEC14FD0431F00E94CA
:104C0000B528F60181936F01F7CF8F819885080F42
:104C1000191F18870F838985882319F00115124001
:104C200048F0CE010E94292505C0CE010E941E2514
:104C300080E001C081E0DF91CF911F910F91FF9043
:104C4000EF90DF90CF90BF90AF900895CF92DF921A
:104C5000EF92FF920F93CF93DF93EC01690141151F
:104C600051056105710511F482E13EC08B858330E9
:104C700039F089E0440F551F661F771F8A95D1F7D9
:104C80009A01AB0168E1CE010E944325882311F00F
:104C900084E02AC08EEF0E94AE2876018EEFD81AEB
:104CA000F70181917F010E94AE28CE14DF04C1F785
:104CB0008FEF0E94AE288FEF0E94AE280E94B52889
:104CC0008A878F71853031F081E18D83CE010E941A
:104CD0001E250BC00023D9F068E572E0CE010E94CA
:104CE000DE21811107C085E18D83CE010E941E2542
:104CF00080E014C020E030E0A9016DE0CE010E9408
:104D00004325811109C00E94B528811105C0CE013B
:104D10000E941E2581E002C084E1E6CFDF91CF91A1
:104D20000F91FF90EF90DF90CF9008952F923F92D8
:104D30004F925F926F927F928F929F92AF92BF92AB
:104D4000CF92DF92EF92FF920F931F93CF93DF9357
:104D500000D000D01F92CDB7DEB77C016B011A01E5
:104D6000DC0115968C9115978130C9F414961C912D
:104D700011FF15C012FF1DC0F701438954896589D1
:104D8000768982859385A485B58584179507A607BE
:104D9000B70779F0C7010E94592281110AC081E04A
:104DA00090E0D70113969C938E93129780E090E049
:104DB0004CC1410112951F70109511701D8380C068
:104DC0005B968D919C915C97FC0174807A94B901FB
:104DD000A80129E076956795579547952A95D1F7CB
:104DE00074221170772009F477C080E092E0801B74
:104DF000910B54018815990508F45C01D7015B9665
:104E00002D913C915C9716968D919D910D90BC9142
:104E1000A02D0297A109B109F901058404C0880FEA
:104E2000991FAA1FBB1F0A94D2F746855785608930
:104E30007189840F951FA61FB71F9C01AD01270D17
:104E4000311D411D511D29013A01A11432E0B30663
:104E500009F089C08091020190910301A0910401A1
:104E6000B0910501481659066A067B0659F48FEF82
:104E70009FEFDC018093020190930301A093040152
:104E8000B09305010D819601B301A2018091200527
:104E9000909121050E942626882309F480CF9EEF59
:104EA000D91A8A189B08F70182859385A485B58550
:104EB0008A0D9B1DA11DB11D82879387A487B5878D
:104EC000D7011A960D911D912D913C911D9781143A
:104ED000910409F075CF88C00115110509F085CF3F
:104EE00016964D915D916D917C91199741155105E3
:104EF0006105710559F457968D919D910D90BC9166
:104F0000A02D0097A105B10541F521C09E012F5F9D
:104F10003F4F0E946915882309F449CF89819A81FE
:104F2000AB81BC81F701238D348DF90127892031B4
:104F300029F048EF5FEF6FEF7FE004C048EF5FEFCD
:104F400060E070E084179507A607B70730F0C70147
:104F50000E94FB23811149CF22CFF70186839783DB
:104F6000A087B18742CF0115110531F5D7011A96F7
:104F70004D915D916D917C911D9753968D919D9171
:104F80000D90BC91A02D481759076A077B07A0F028
:104F900081E00E945514882309F401CF4092020158
:104FA00050920301609204017092050180918D027C
:104FB000816080938D0208C041E0C301B2010E946C
:104FC0007E14882309F4EBCED601F801E05EFC4F95
:104FD0009F012A0D3B1D2E173F0719F08D918193DC
:104FE000FACFCA0CDB1C5DCFD70153964D915D9172
:104FF0006D917C91569714968C91401751076207DA
:10500000730740F4F701038B148B258B368B806874
:1050100084830DC02091280130912901232B39F080
:105020002114310421F08068D70114968C93F70184
:10503000848183FD02C0C10108C061E0C7010E94F4
:10504000F921882309F4ABCEF6CF0F900F900F9083
:105050000F900F90DF91CF911F910F91FF90EF90E4
:10506000DF90CF90BF90AF909F908F907F906F9088
:105070005F904F903F902F900895DC015996ED91ED
:10508000FC915A973097B9F083899489A589B6899C
:105090004285538564857585841B950BA60BB70BDC
:1050A000811520E89207A105B10538F08FEF9FE741
:1050B000A0E0B0E0089580E090E00895DC0159960A
:1050C0008D919C915A97009739F0DC01ED91FC91FC
:1050D0000480F581E02D099480E090E00895CF935D
:1050E000DF931F92CDB7DEB76983DC01ED91FC91B0
:1050F0000280F381E02D41E050E0BE016F5F7F4F01
:1051000009950F90DF91CF910895089580E090E088
:105110000895FC01818D928D009719F061E00C9447
:10512000F9210895CF93DF93EC01898D9A8D009733
:1051300039F481E090E09B838A8380E090E00BC0AB
:10514000FC01138212820E949626E98DFA8D22813B
:105150003381232B71F7DF91CF9108958EBD00002D
:105160000DB407FEFDCF8EB508958FEF0C94AE28D9
:105170008CBD9DBD0895FC01DB0112968D919C9123
:1051800013979383828387EB91E0918380831496B6
:105190008C911497848315968C9115978583169618
:1051A0004D915D916D917C911997468357836087EE
:1051B00071871A964D915D916D917C911D974287F3
:1051C0005387648775871E964D915D916D917C9193
:1051D000519746875787608B718B52968C91529767
:1051E000828B53964D915D916D917C915697438B37
:1051F000548B658B768B57964D915D916D917C911B
:105200005A97478B508F618F728F5B968D919C91CF
:105210005C97948F838F08954F925F926F927F92E5
:10522000AF92BF92CF92DF92EF92FF920F931F93B4
:10523000CF93DF931F92CDB7DEB7FC0125812223E8
:1052400009F4C1C0848180FFBEC083899489A58987
:10525000B689428453846484758484159505A605B3
:10526000B70509F4B0C06F015201F1E0BF22D601C9
:105270005B968D919C915C97B301A20139E0769584
:105280006795579547953A95D1F7223071F4FC010F
:10529000828D938DA48DB58D8A019B01080F191FF6
:1052A0002A1F3B1FC901B8014AC0DC0114961C919A
:1052B00011501423A114B104F9F411111DC0452893
:1052C0004628472851F4F6018789908DA18DB28D2B
:1052D00086839783A087B1870FC0D60116964D911C
:1052E0005D916D917C91199796012A5F3F4F0E94C5
:1052F0006915882309F467C0F601238D348D8681F2
:105300009781A085B1850297A109B109AC01BD01C2
:10531000F901058404C0440F551F661F771F0A94C6
:10532000D2F786859785A089B189840F951FA61F1E
:10533000B71FBC01CD01610F711D811D911DD601EB
:1053400014962C9126FF0DC040900201509003014D
:1053500060900401709005014616570668067906AC
:1053600099F440E00E947E14882369F1F501E05E23
:10537000FC4FDE0111969F012F5F3F4F2E173F0715
:1053800099F081918D93FACFFE0131967F0101E072
:1053900010E09501AB01BC018091200590912105A1
:1053A0000E949225882379F0F60182859385A48551
:1053B000B5850196A11DB11D82879387A487B58706
:1053C000898190E002C08FEF9FEF0F90DF91CF9126
:1053D0001F910F91FF90EF90DF90CF90BF90AF9013
:1053E0007F906F905F904F900895FC01818D928D1A
:1053F000009711F00C940C298FEF9FEF08950F93F5
:105400001F93CF93DF93FC01818D928D0097B9F0AC
:10541000EF010E940C298C010F3F8FEF180791F0CC
:10542000898D9A8DFC01428553856485758541502F
:105430005109610971090E945922C80105C080E023
:1054400090E002C08FEF9FEFDF91CF911F910F91FE
:1054500008951F920F920FB60F9211242F933F932E
:105460004F935F936F937F938F939F93AF93BF936C
:10547000EF93FF93E0E0F0E00995FF91EF91BF918A
:10548000AF919F918F917F916F915F914F913F91DC
:105490002F910F900FBE0F901F9018952F923F9253
:1054A0004F925F926F927F928F929F92AF92BF9234
:1054B000CF92DF92EF92FF920F931F93CF93DF93E0
:1054C00000D0CDB7DEB74C012DB73EB73A83298364
:1054D00063E172E082E295E00E943A12C4010E9408
:1054E000071F8DB79EB7881999090FB6F8949EBF0C
:1054F0000FBE8DBF0DB71EB70F5F1F4FADB7BEB745
:1055000011961C92F8013196C801880D991DE81773
:10551000F90711F01192FBCF8FEB95E00E942F114C
:10552000F8018083780180914C0690E020914D062F
:10553000821B9109029744F08FEB95E00E942F1196
:10554000D7018D937D01EFCF8FEB95E00E942F1156
:105550006C0163E272E082E295E00E943A128C2DC7
:105560000E94AA1AB401092C000C880B990B0E9406
:10557000C72E20E030E040E05FE30E94262F20E0CD
:1055800030E040E05FE30E94CB310E94A9321B0172
:10559000220C331CEDB7FEB7E219F3090FB6F894ED
:1055A000FEBF0FBEEDBF2DB73EB72F5F3F4F790156
:1055B00012821182339680E090E001968617970759
:1055C00019F011921192F9CF280137015801C50144
:1055D000801B910B88159905E4F4D50111968C91E7
:1055E000119790E0982F88272C91822BF3018193BB
:1055F00091933F0161E372E082E295E00E943A12EA
:10560000D2018D912D010E94AA1AB2E0AB0EB11CFD
:10561000DECFDD24EFE6CE16D10431F0F0E7CF1671
:10562000D10459F582E026C036942794E0E6F2E0F2
:1056300080E090E08215930530F4D7012D913C91E4
:105640003183208302C0118210820196B2E0EB0EFA
:10565000F11C32968830910569F76CE372E082E2C2
:1056600095E00E943A1267ED71E082E295E00E94B7
:105670003A1281E08093700207C083E08093700249
:1056800086EB93E00E94BF1AE981FA810FB6F89485
:10569000FEBF0FBEEDBF0F900F90DF91CF911F9116
:1056A0000F91FF90EF90DF90CF90BF90AF909F90C1
:1056B0008F907F906F905F904F903F902F900895C4
:1056C0008EE480937C0063E070E080E090E00E94D4
:1056D000B22080917A00806480937A0080917A0071
:1056E00086FDFCCF209178003091790040E050E0B9
:1056F00061ED73E481E190E00E944530C9010895B5
:10570000CF93C82F88E00E94091E6C2F8FEB95E085
:105710000E947811CF910C94131C6F927F928F92FC
:105720009F92AF92BF92CF92DF92EF92FF920F9330
:105730001F93CF93DF934C015B01EA01390188E6A7
:105740000E94091E60E08FEB95E00E9478110E9494
:10575000131C67E070E088E690E00E94131E8FEB58
:1057600095E00E942F11982F9695969596959E708C
:10577000292F220F220F920F8F70890FF40180833F
:105780008FEB95E00E942F11982F92959F708F704C
:10579000FAE09F9F800D1124F50180838FEB95E047
:1057A0000E942F11982F9695969596959670292F71
:1057B000220F220F920F8F70890F88838FEB95E055
:1057C0000E942F11982F92959F708F70FAE09F9FE3
:1057D000800D1124F30180838FEB95E00E942F113F
:1057E000982F92959F708F70FAE09F9F800D1124E3
:1057F000F80180838FEB95E00E942F11982F9295EE
:105800009F708F70FAE09F9F800D1124F7018083B5
:105810008FEB95E00E942F11982F92959F708F70BB
:10582000FAE09F9F800D1124F6018083DF91CF91D4
:105830001F910F91FF90EF90DF90CF90BF90AF90AE
:105840009F908F907F906F90089560E089E00E9414
:10585000F71F60E083E00E94F71F60E084E00E9491
:10586000F71F61E080E10E94F71F0E94561A61E075
:1058700081E10E94F71F61E085E00E94F71F61E06F
:1058800086E00E94F71F61E087E00E94F71F61E059
:1058900088E00C94F71FE2E2F5E01382128288EEB2
:1058A00093E0A0E0B0E084839583A683B78321E8EA
:1058B00031E03183208325EC30E03587248724ECE8
:1058C00030E03787268720EC30E0318B208B21ECCD
:1058D00030E0338B228B22EC30E0358B248B26ECAE
:1058E00030E0378B268B118E128E138E148EEFEBD9
:1058F000F5E01382128284839583A683B78385EAB9
:1059000091E091838083EBECF5E080E58083118268
:10591000EDECF5E0158216821186138682E090E0A8
:10592000A0E0B0E084879587A687B78713A215A665
:1059300014A687EB91E093A782A717A60895789401
:1059400084B5826084BD84B5816084BD85B5826084
:1059500085BD85B5816085BD80916E008160809335
:105960006E0010928100809181008260809381009E
:1059700080918100816080938100809180008160AE
:10598000809380008091B10084608093B100809109
:10599000B00081608093B00080917A008460809331
:1059A0007A0080917A00826080937A0080917A00F8
:1059B000816080937A0080917A00806880937A0079
:1059C0001092C1000E941A198AE893E00E94BF1A3F
:1059D0000E9444208EE08093BA0086EE8093B80047
:1059E0008EE49AE2909318068093170688E793E076
:1059F0000E94EB1A61E082E00E94762061E083E081
:105A00000E94762061E084E00E94762061E085E0DB
:105A10000E94762061E086E00E94762061E087E0C7
:105A20000E94762061E088E00E94762061E089E0B3
:105A30000E94762061E08AE00E94762060E08EE09D
:105A40000E94762060E08FE00E94762061E081E194
:105A50000E94762061E080E10E94762060E084E18F
:105A60000E94762060E085E10E94762064EF71E07C
:105A700080E090E00E94B22060E082E00E94F71F88
:105A800060E089E00E94F71F60E083E00E94F71F5A
:105A900060E084E00E94F71F61E080E10E94F71F50
:105AA00061E081E10E94F71F61E085E00E94F71F3D
:105AB00061E086E00E94F71F61E087E00E94F71F27
:105AC00061E088E00E94F71F88E693E00E94EB1AED
:105AD00080E1809381001092800081E08093220613
